{
  "_format": "hh-sol-artifact-1",
  "contractName": "EthereumOne",
  "sourceName": "contracts/EthereumOne.sol",
  "abi": [
    {
      "inputs": [
        {
          "internalType": "string",
          "name": "_name",
          "type": "string"
        },
        {
          "internalType": "string",
          "name": "_symbol",
          "type": "string"
        }
      ],
      "stateMutability": "nonpayable",
      "type": "constructor"
    },
    {
      "anonymous": false,
      "inputs": [
        {
          "indexed": true,
          "internalType": "address",
          "name": "owner",
          "type": "address"
        },
        {
          "indexed": true,
          "internalType": "address",
          "name": "approved",
          "type": "address"
        },
        {
          "indexed": true,
          "internalType": "uint256",
          "name": "tokenId",
          "type": "uint256"
        }
      ],
      "name": "Approval",
      "type": "event"
    },
    {
      "anonymous": false,
      "inputs": [
        {
          "indexed": true,
          "internalType": "address",
          "name": "owner",
          "type": "address"
        },
        {
          "indexed": true,
          "internalType": "address",
          "name": "operator",
          "type": "address"
        },
        {
          "indexed": false,
          "internalType": "bool",
          "name": "approved",
          "type": "bool"
        }
      ],
      "name": "ApprovalForAll",
      "type": "event"
    },
    {
      "anonymous": false,
      "inputs": [
        {
          "indexed": true,
          "internalType": "address",
          "name": "from",
          "type": "address"
        },
        {
          "indexed": true,
          "internalType": "address",
          "name": "to",
          "type": "address"
        },
        {
          "indexed": true,
          "internalType": "uint256",
          "name": "tokenId",
          "type": "uint256"
        }
      ],
      "name": "Transfer",
      "type": "event"
    },
    {
      "inputs": [
        {
          "internalType": "address",
          "name": "to",
          "type": "address"
        },
        {
          "internalType": "uint256",
          "name": "tokenId",
          "type": "uint256"
        }
      ],
      "name": "approve",
      "outputs": [],
      "stateMutability": "nonpayable",
      "type": "function"
    },
    {
      "inputs": [
        {
          "internalType": "address",
          "name": "owner",
          "type": "address"
        }
      ],
      "name": "balanceOf",
      "outputs": [
        {
          "internalType": "uint256",
          "name": "",
          "type": "uint256"
        }
      ],
      "stateMutability": "view",
      "type": "function"
    },
    {
      "inputs": [
        {
          "internalType": "uint256",
          "name": "tokenId",
          "type": "uint256"
        }
      ],
      "name": "getApproved",
      "outputs": [
        {
          "internalType": "address",
          "name": "",
          "type": "address"
        }
      ],
      "stateMutability": "view",
      "type": "function"
    },
    {
      "inputs": [],
      "name": "getBalance",
      "outputs": [
        {
          "internalType": "uint256",
          "name": "",
          "type": "uint256"
        }
      ],
      "stateMutability": "view",
      "type": "function"
    },
    {
      "inputs": [
        {
          "internalType": "uint256",
          "name": "_id",
          "type": "uint256"
        }
      ],
      "name": "getDomain",
      "outputs": [
        {
          "components": [
            {
              "internalType": "string",
              "name": "name",
              "type": "string"
            },
            {
              "internalType": "uint256",
              "name": "cost",
              "type": "uint256"
            },
            {
              "internalType": "bool",
              "name": "isOwned",
              "type": "bool"
            }
          ],
          "internalType": "struct EthereumOne.Domain",
          "name": "",
          "type": "tuple"
        }
      ],
      "stateMutability": "view",
      "type": "function"
    },
    {
      "inputs": [
        {
          "internalType": "address",
          "name": "owner",
          "type": "address"
        },
        {
          "internalType": "address",
          "name": "operator",
          "type": "address"
        }
      ],
      "name": "isApprovedForAll",
      "outputs": [
        {
          "internalType": "bool",
          "name": "",
          "type": "bool"
        }
      ],
      "stateMutability": "view",
      "type": "function"
    },
    {
      "inputs": [
        {
          "internalType": "string",
          "name": "_name",
          "type": "string"
        },
        {
          "internalType": "uint256",
          "name": "_cost",
          "type": "uint256"
        }
      ],
      "name": "list_domains",
      "outputs": [],
      "stateMutability": "nonpayable",
      "type": "function"
    },
    {
      "inputs": [],
      "name": "maxSupply",
      "outputs": [
        {
          "internalType": "uint256",
          "name": "",
          "type": "uint256"
        }
      ],
      "stateMutability": "view",
      "type": "function"
    },
    {
      "inputs": [
        {
          "internalType": "uint256",
          "name": "_id",
          "type": "uint256"
        }
      ],
      "name": "mint",
      "outputs": [],
      "stateMutability": "payable",
      "type": "function"
    },
    {
      "inputs": [],
      "name": "name",
      "outputs": [
        {
          "internalType": "string",
          "name": "",
          "type": "string"
        }
      ],
      "stateMutability": "view",
      "type": "function"
    },
    {
      "inputs": [],
      "name": "owner",
      "outputs": [
        {
          "internalType": "address",
          "name": "",
          "type": "address"
        }
      ],
      "stateMutability": "view",
      "type": "function"
    },
    {
      "inputs": [
        {
          "internalType": "uint256",
          "name": "tokenId",
          "type": "uint256"
        }
      ],
      "name": "ownerOf",
      "outputs": [
        {
          "internalType": "address",
          "name": "",
          "type": "address"
        }
      ],
      "stateMutability": "view",
      "type": "function"
    },
    {
      "inputs": [
        {
          "internalType": "address",
          "name": "from",
          "type": "address"
        },
        {
          "internalType": "address",
          "name": "to",
          "type": "address"
        },
        {
          "internalType": "uint256",
          "name": "tokenId",
          "type": "uint256"
        }
      ],
      "name": "safeTransferFrom",
      "outputs": [],
      "stateMutability": "nonpayable",
      "type": "function"
    },
    {
      "inputs": [
        {
          "internalType": "address",
          "name": "from",
          "type": "address"
        },
        {
          "internalType": "address",
          "name": "to",
          "type": "address"
        },
        {
          "internalType": "uint256",
          "name": "tokenId",
          "type": "uint256"
        },
        {
          "internalType": "bytes",
          "name": "data",
          "type": "bytes"
        }
      ],
      "name": "safeTransferFrom",
      "outputs": [],
      "stateMutability": "nonpayable",
      "type": "function"
    },
    {
      "inputs": [
        {
          "internalType": "address",
          "name": "operator",
          "type": "address"
        },
        {
          "internalType": "bool",
          "name": "approved",
          "type": "bool"
        }
      ],
      "name": "setApprovalForAll",
      "outputs": [],
      "stateMutability": "nonpayable",
      "type": "function"
    },
    {
      "inputs": [
        {
          "internalType": "bytes4",
          "name": "interfaceId",
          "type": "bytes4"
        }
      ],
      "name": "supportsInterface",
      "outputs": [
        {
          "internalType": "bool",
          "name": "",
          "type": "bool"
        }
      ],
      "stateMutability": "view",
      "type": "function"
    },
    {
      "inputs": [],
      "name": "symbol",
      "outputs": [
        {
          "internalType": "string",
          "name": "",
          "type": "string"
        }
      ],
      "stateMutability": "view",
      "type": "function"
    },
    {
      "inputs": [
        {
          "internalType": "uint256",
          "name": "tokenId",
          "type": "uint256"
        }
      ],
      "name": "tokenURI",
      "outputs": [
        {
          "internalType": "string",
          "name": "",
          "type": "string"
        }
      ],
      "stateMutability": "view",
      "type": "function"
    },
    {
      "inputs": [],
      "name": "totalSupply",
      "outputs": [
        {
          "internalType": "uint256",
          "name": "",
          "type": "uint256"
        }
      ],
      "stateMutability": "view",
      "type": "function"
    },
    {
      "inputs": [
        {
          "internalType": "address",
          "name": "from",
          "type": "address"
        },
        {
          "internalType": "address",
          "name": "to",
          "type": "address"
        },
        {
          "internalType": "uint256",
          "name": "tokenId",
          "type": "uint256"
        }
      ],
      "name": "transferFrom",
      "outputs": [],
      "stateMutability": "nonpayable",
      "type": "function"
    },
    {
      "inputs": [],
      "name": "withdraw",
      "outputs": [],
      "stateMutability": "nonpayable",
      "type": "function"
    }
  ],
  "bytecode": "0x60806040523480156200001157600080fd5b50604051620037e4380380620037e483398181016040528101906200003791906200023b565b818181600090816200004a91906200050b565b5080600190816200005c91906200050b565b50505033600660006101000a81548173ffffffffffffffffffffffffffffffffffffffff021916908373ffffffffffffffffffffffffffffffffffffffff1602179055505050620005f2565b6000604051905090565b600080fd5b600080fd5b600080fd5b600080fd5b6000601f19601f8301169050919050565b7f4e487b7100000000000000000000000000000000000000000000000000000000600052604160045260246000fd5b6200011182620000c6565b810181811067ffffffffffffffff82111715620001335762000132620000d7565b5b80604052505050565b600062000148620000a8565b905062000156828262000106565b919050565b600067ffffffffffffffff821115620001795762000178620000d7565b5b6200018482620000c6565b9050602081019050919050565b60005b83811015620001b157808201518184015260208101905062000194565b60008484015250505050565b6000620001d4620001ce846200015b565b6200013c565b905082815260208101848484011115620001f357620001f2620000c1565b5b6200020084828562000191565b509392505050565b600082601f83011262000220576200021f620000bc565b5b815162000232848260208601620001bd565b91505092915050565b60008060408385031215620002555762000254620000b2565b5b600083015167ffffffffffffffff811115620002765762000275620000b7565b5b620002848582860162000208565b925050602083015167ffffffffffffffff811115620002a857620002a7620000b7565b5b620002b68582860162000208565b9150509250929050565b600081519050919050565b7f4e487b7100000000000000000000000000000000000000000000000000000000600052602260045260246000fd5b600060028204905060018216806200031357607f821691505b602082108103620003295762000328620002cb565b5b50919050565b60008190508160005260206000209050919050565b60006020601f8301049050919050565b600082821b905092915050565b600060088302620003937fffffffffffffffffffffffffffffffffffffffffffffffffffffffffffffffff8262000354565b6200039f868362000354565b95508019841693508086168417925050509392505050565b6000819050919050565b6000819050919050565b6000620003ec620003e6620003e084620003b7565b620003c1565b620003b7565b9050919050565b6000819050919050565b6200040883620003cb565b620004206200041782620003f3565b84845462000361565b825550505050565b600090565b6200043762000428565b62000444818484620003fd565b505050565b5b818110156200046c57620004606000826200042d565b6001810190506200044a565b5050565b601f821115620004bb5762000485816200032f565b620004908462000344565b81016020851015620004a0578190505b620004b8620004af8562000344565b83018262000449565b50505b505050565b600082821c905092915050565b6000620004e060001984600802620004c0565b1980831691505092915050565b6000620004fb8383620004cd565b9150826002028217905092915050565b6200051682620002c0565b67ffffffffffffffff811115620005325762000531620000d7565b5b6200053e8254620002fa565b6200054b82828562000470565b600060209050601f8311600181146200058357600084156200056e578287015190505b6200057a8582620004ed565b865550620005ea565b601f19841662000593866200032f565b60005b82811015620005bd5784890151825560018201915060208501945060208101905062000596565b86831015620005dd5784890151620005d9601f891682620004cd565b8355505b6001600288020188555050505b505050505050565b6131e280620006026000396000f3fe60806040526004361061012a5760003560e01c80636352211e116100ab578063a22cb4651161006f578063a22cb465146103e5578063b88d4fde1461040e578063c87b56dd14610437578063c919d44a14610474578063d5abeb011461049d578063e985e9c5146104c85761012a565b80636352211e146102f957806370a08231146103365780638da5cb5b1461037357806395d89b411461039e578063a0712d68146103c95761012a565b806318160ddd116100f257806318160ddd146102285780631a7a98e21461025357806323b872dd146102905780633ccfd60b146102b957806342842e0e146102d05761012a565b806301ffc9a71461012f57806306fdde031461016c578063081812fc14610197578063095ea7b3146101d457806312065fe0146101fd575b600080fd5b34801561013b57600080fd5b5061015660048036038101906101519190611f18565b610505565b6040516101639190611f60565b60405180910390f35b34801561017857600080fd5b506101816105e7565b60405161018e919061200b565b60405180910390f35b3480156101a357600080fd5b506101be60048036038101906101b99190612063565b610679565b6040516101cb91906120d1565b60405180910390f35b3480156101e057600080fd5b506101fb60048036038101906101f69190612118565b6106bf565b005b34801561020957600080fd5b506102126107d6565b60405161021f9190612167565b60405180910390f35b34801561023457600080fd5b5061023d6107de565b60405161024a9190612167565b60405180910390f35b34801561025f57600080fd5b5061027a60048036038101906102759190612063565b6107e4565b604051610287919061223a565b60405180910390f35b34801561029c57600080fd5b506102b760048036038101906102b2919061225c565b6108c8565b005b3480156102c557600080fd5b506102ce610928565b005b3480156102dc57600080fd5b506102f760048036038101906102f2919061225c565b610a23565b005b34801561030557600080fd5b50610320600480360381019061031b9190612063565b610a43565b60405161032d91906120d1565b60405180910390f35b34801561034257600080fd5b5061035d600480360381019061035891906122af565b610ac9565b60405161036a9190612167565b60405180910390f35b34801561037f57600080fd5b50610388610b80565b60405161039591906120d1565b60405180910390f35b3480156103aa57600080fd5b506103b3610ba6565b6040516103c0919061200b565b60405180910390f35b6103e360048036038101906103de9190612063565b610c38565b005b3480156103f157600080fd5b5061040c60048036038101906104079190612308565b610cff565b005b34801561041a57600080fd5b506104356004803603810190610430919061247d565b610d15565b005b34801561044357600080fd5b5061045e60048036038101906104599190612063565b610d77565b60405161046b919061200b565b60405180910390f35b34801561048057600080fd5b5061049b600480360381019061049691906125a1565b610ddf565b005b3480156104a957600080fd5b506104b2610f01565b6040516104bf9190612167565b60405180910390f35b3480156104d457600080fd5b506104ef60048036038101906104ea91906125fd565b610f07565b6040516104fc9190611f60565b60405180910390f35b60007f80ac58cd000000000000000000000000000000000000000000000000000000007bffffffffffffffffffffffffffffffffffffffffffffffffffffffff1916827bffffffffffffffffffffffffffffffffffffffffffffffffffffffff191614806105d057507f5b5e139f000000000000000000000000000000000000000000000000000000007bffffffffffffffffffffffffffffffffffffffffffffffffffffffff1916827bffffffffffffffffffffffffffffffffffffffffffffffffffffffff1916145b806105e057506105df82610f9b565b5b9050919050565b6060600080546105f69061266c565b80601f01602080910402602001604051908101604052809291908181526020018280546106229061266c565b801561066f5780601f106106445761010080835404028352916020019161066f565b820191906000526020600020905b81548152906001019060200180831161065257829003601f168201915b5050505050905090565b600061068482611005565b6004600083815260200190815260200160002060009054906101000a900473ffffffffffffffffffffffffffffffffffffffff169050919050565b60006106ca82610a43565b90508073ffffffffffffffffffffffffffffffffffffffff168373ffffffffffffffffffffffffffffffffffffffff160361073a576040517f08c379a00000000000000000000000000000000000000000000000000000000081526004016107319061270f565b60405180910390fd5b8073ffffffffffffffffffffffffffffffffffffffff16610759611050565b73ffffffffffffffffffffffffffffffffffffffff161480610788575061078781610782611050565b610f07565b5b6107c7576040517f08c379a00000000000000000000000000000000000000000000000000000000081526004016107be906127a1565b60405180910390fd5b6107d18383611058565b505050565b600047905090565b60085481565b6107ec611e89565b6009600083815260200190815260200160002060405180606001604052908160008201805461081a9061266c565b80601f01602080910402602001604051908101604052809291908181526020018280546108469061266c565b80156108935780601f1061086857610100808354040283529160200191610893565b820191906000526020600020905b81548152906001019060200180831161087657829003601f168201915b50505050508152602001600182015481526020016002820160009054906101000a900460ff1615151515815250509050919050565b6108d96108d3611050565b82611111565b610918576040517f08c379a000000000000000000000000000000000000000000000000000000000815260040161090f90612833565b60405180910390fd5b6109238383836111a6565b505050565b600660009054906101000a900473ffffffffffffffffffffffffffffffffffffffff1673ffffffffffffffffffffffffffffffffffffffff163373ffffffffffffffffffffffffffffffffffffffff16146109b8576040517f08c379a00000000000000000000000000000000000000000000000000000000081526004016109af906128c5565b60405180910390fd5b600660009054906101000a900473ffffffffffffffffffffffffffffffffffffffff1673ffffffffffffffffffffffffffffffffffffffff166108fc479081150290604051600060405180830381858888f19350505050158015610a20573d6000803e3d6000fd5b50565b610a3e83838360405180602001604052806000815250610d15565b505050565b600080610a4f8361149f565b9050600073ffffffffffffffffffffffffffffffffffffffff168173ffffffffffffffffffffffffffffffffffffffff1603610ac0576040517f08c379a0000000000000000000000000000000000000000000000000000000008152600401610ab790612931565b60405180910390fd5b80915050919050565b60008073ffffffffffffffffffffffffffffffffffffffff168273ffffffffffffffffffffffffffffffffffffffff1603610b39576040517f08c379a0000000000000000000000000000000000000000000000000000000008152600401610b30906129c3565b60405180910390fd5b600360008373ffffffffffffffffffffffffffffffffffffffff1673ffffffffffffffffffffffffffffffffffffffff168152602001908152602001600020549050919050565b600660009054906101000a900473ffffffffffffffffffffffffffffffffffffffff1681565b606060018054610bb59061266c565b80601f0160208091040260200160405190810160405280929190818152602001828054610be19061266c565b8015610c2e5780601f10610c0357610100808354040283529160200191610c2e565b820191906000526020600020905b815481529060010190602001808311610c1157829003601f168201915b5050505050905090565b60008103610c4557600080fd5b600754811115610c5457600080fd5b600015156009600083815260200190815260200160002060020160009054906101000a900460ff16151514610c8857600080fd5b6009600082815260200190815260200160002060010154341015610cab57600080fd5b60016009600083815260200190815260200160002060020160006101000a81548160ff021916908315150217905550610ce433826114dc565b60086000815480929190610cf790612a12565b919050555050565b610d11610d0a611050565b83836114fa565b5050565b610d26610d20611050565b83611111565b610d65576040517f08c379a0000000000000000000000000000000000000000000000000000000008152600401610d5c90612833565b60405180910390fd5b610d7184848484611666565b50505050565b6060610d8282611005565b6000610d8c6116c2565b90506000815111610dac5760405180602001604052806000815250610dd7565b80610db6846116d9565b604051602001610dc7929190612a96565b6040516020818303038152906040525b915050919050565b600660009054906101000a900473ffffffffffffffffffffffffffffffffffffffff1673ffffffffffffffffffffffffffffffffffffffff163373ffffffffffffffffffffffffffffffffffffffff1614610e6f576040517f08c379a0000000000000000000000000000000000000000000000000000000008152600401610e66906128c5565b60405180910390fd5b60076000815480929190610e8290612a12565b91905055506040518060600160405280838152602001828152602001600015158152506009600060075481526020019081526020016000206000820151816000019081610ecf9190612c66565b506020820151816001015560408201518160020160006101000a81548160ff0219169083151502179055509050505050565b60075481565b6000600560008473ffffffffffffffffffffffffffffffffffffffff1673ffffffffffffffffffffffffffffffffffffffff16815260200190815260200160002060008373ffffffffffffffffffffffffffffffffffffffff1673ffffffffffffffffffffffffffffffffffffffff16815260200190815260200160002060009054906101000a900460ff16905092915050565b60007f01ffc9a7000000000000000000000000000000000000000000000000000000007bffffffffffffffffffffffffffffffffffffffffffffffffffffffff1916827bffffffffffffffffffffffffffffffffffffffffffffffffffffffff1916149050919050565b61100e816117a7565b61104d576040517f08c379a000000000000000000000000000000000000000000000000000000000815260040161104490612931565b60405180910390fd5b50565b600033905090565b816004600083815260200190815260200160002060006101000a81548173ffffffffffffffffffffffffffffffffffffffff021916908373ffffffffffffffffffffffffffffffffffffffff160217905550808273ffffffffffffffffffffffffffffffffffffffff166110cb83610a43565b73ffffffffffffffffffffffffffffffffffffffff167f8c5be1e5ebec7d5bd14f71427d1e84f3dd0314c0f7b2291e5b200ac8c7c3b92560405160405180910390a45050565b60008061111d83610a43565b90508073ffffffffffffffffffffffffffffffffffffffff168473ffffffffffffffffffffffffffffffffffffffff16148061115f575061115e8185610f07565b5b8061119d57508373ffffffffffffffffffffffffffffffffffffffff1661118584610679565b73ffffffffffffffffffffffffffffffffffffffff16145b91505092915050565b8273ffffffffffffffffffffffffffffffffffffffff166111c682610a43565b73ffffffffffffffffffffffffffffffffffffffff161461121c576040517f08c379a000000000000000000000000000000000000000000000000000000000815260040161121390612daa565b60405180910390fd5b600073ffffffffffffffffffffffffffffffffffffffff168273ffffffffffffffffffffffffffffffffffffffff160361128b576040517f08c379a000000000000000000000000000000000000000000000000000000000815260040161128290612e3c565b60405180910390fd5b61129883838360016117e8565b8273ffffffffffffffffffffffffffffffffffffffff166112b882610a43565b73ffffffffffffffffffffffffffffffffffffffff161461130e576040517f08c379a000000000000000000000000000000000000000000000000000000000815260040161130590612daa565b60405180910390fd5b6004600082815260200190815260200160002060006101000a81549073ffffffffffffffffffffffffffffffffffffffff02191690556001600360008573ffffffffffffffffffffffffffffffffffffffff1673ffffffffffffffffffffffffffffffffffffffff168152602001908152602001600020600082825403925050819055506001600360008473ffffffffffffffffffffffffffffffffffffffff1673ffffffffffffffffffffffffffffffffffffffff16815260200190815260200160002060008282540192505081905550816002600083815260200190815260200160002060006101000a81548173ffffffffffffffffffffffffffffffffffffffff021916908373ffffffffffffffffffffffffffffffffffffffff160217905550808273ffffffffffffffffffffffffffffffffffffffff168473ffffffffffffffffffffffffffffffffffffffff167fddf252ad1be2c89b69c2b068fc378daa952ba7f163c4a11628f55a4df523b3ef60405160405180910390a461149a838383600161190e565b505050565b60006002600083815260200190815260200160002060009054906101000a900473ffffffffffffffffffffffffffffffffffffffff169050919050565b6114f6828260405180602001604052806000815250611914565b5050565b8173ffffffffffffffffffffffffffffffffffffffff168373ffffffffffffffffffffffffffffffffffffffff1603611568576040517f08c379a000000000000000000000000000000000000000000000000000000000815260040161155f90612ea8565b60405180910390fd5b80600560008573ffffffffffffffffffffffffffffffffffffffff1673ffffffffffffffffffffffffffffffffffffffff16815260200190815260200160002060008473ffffffffffffffffffffffffffffffffffffffff1673ffffffffffffffffffffffffffffffffffffffff16815260200190815260200160002060006101000a81548160ff0219169083151502179055508173ffffffffffffffffffffffffffffffffffffffff168373ffffffffffffffffffffffffffffffffffffffff167f17307eab39ab6107e8899845ad3d59bd9653f200f220920489ca2b5937696c31836040516116599190611f60565b60405180910390a3505050565b6116718484846111a6565b61167d8484848461196f565b6116bc576040517f08c379a00000000000000000000000000000000000000000000000000000000081526004016116b390612f3a565b60405180910390fd5b50505050565b606060405180602001604052806000815250905090565b6060600060016116e884611af6565b01905060008167ffffffffffffffff81111561170757611706612352565b5b6040519080825280601f01601f1916602001820160405280156117395781602001600182028036833780820191505090505b509050600082602001820190505b60011561179c578080600190039150507f3031323334353637383961626364656600000000000000000000000000000000600a86061a8153600a85816117905761178f612f5a565b5b04945060008503611747575b819350505050919050565b60008073ffffffffffffffffffffffffffffffffffffffff166117c98361149f565b73ffffffffffffffffffffffffffffffffffffffff1614159050919050565b600181111561190857600073ffffffffffffffffffffffffffffffffffffffff168473ffffffffffffffffffffffffffffffffffffffff161461187c5780600360008673ffffffffffffffffffffffffffffffffffffffff1673ffffffffffffffffffffffffffffffffffffffff16815260200190815260200160002060008282546118749190612f89565b925050819055505b600073ffffffffffffffffffffffffffffffffffffffff168373ffffffffffffffffffffffffffffffffffffffff16146119075780600360008573ffffffffffffffffffffffffffffffffffffffff1673ffffffffffffffffffffffffffffffffffffffff16815260200190815260200160002060008282546118ff9190612fbd565b925050819055505b5b50505050565b50505050565b61191e8383611c49565b61192b600084848461196f565b61196a576040517f08c379a000000000000000000000000000000000000000000000000000000000815260040161196190612f3a565b60405180910390fd5b505050565b60006119908473ffffffffffffffffffffffffffffffffffffffff16611e66565b15611ae9578373ffffffffffffffffffffffffffffffffffffffff1663150b7a026119b9611050565b8786866040518563ffffffff1660e01b81526004016119db9493929190613046565b6020604051808303816000875af1925050508015611a1757506040513d601f19601f82011682018060405250810190611a1491906130a7565b60015b611a99573d8060008114611a47576040519150601f19603f3d011682016040523d82523d6000602084013e611a4c565b606091505b506000815103611a91576040517f08c379a0000000000000000000000000000000000000000000000000000000008152600401611a8890612f3a565b60405180910390fd5b805181602001fd5b63150b7a0260e01b7bffffffffffffffffffffffffffffffffffffffffffffffffffffffff1916817bffffffffffffffffffffffffffffffffffffffffffffffffffffffff191614915050611aee565b600190505b949350505050565b600080600090507a184f03e93ff9f4daa797ed6e38ed64bf6a1f0100000000000000008310611b54577a184f03e93ff9f4daa797ed6e38ed64bf6a1f0100000000000000008381611b4a57611b49612f5a565b5b0492506040810190505b6d04ee2d6d415b85acef81000000008310611b91576d04ee2d6d415b85acef81000000008381611b8757611b86612f5a565b5b0492506020810190505b662386f26fc100008310611bc057662386f26fc100008381611bb657611bb5612f5a565b5b0492506010810190505b6305f5e1008310611be9576305f5e1008381611bdf57611bde612f5a565b5b0492506008810190505b6127108310611c0e576127108381611c0457611c03612f5a565b5b0492506004810190505b60648310611c315760648381611c2757611c26612f5a565b5b0492506002810190505b600a8310611c40576001810190505b80915050919050565b600073ffffffffffffffffffffffffffffffffffffffff168273ffffffffffffffffffffffffffffffffffffffff1603611cb8576040517f08c379a0000000000000000000000000000000000000000000000000000000008152600401611caf90613120565b60405180910390fd5b611cc1816117a7565b15611d01576040517f08c379a0000000000000000000000000000000000000000000000000000000008152600401611cf89061318c565b60405180910390fd5b611d0f6000838360016117e8565b611d18816117a7565b15611d58576040517f08c379a0000000000000000000000000000000000000000000000000000000008152600401611d4f9061318c565b60405180910390fd5b6001600360008473ffffffffffffffffffffffffffffffffffffffff1673ffffffffffffffffffffffffffffffffffffffff16815260200190815260200160002060008282540192505081905550816002600083815260200190815260200160002060006101000a81548173ffffffffffffffffffffffffffffffffffffffff021916908373ffffffffffffffffffffffffffffffffffffffff160217905550808273ffffffffffffffffffffffffffffffffffffffff16600073ffffffffffffffffffffffffffffffffffffffff167fddf252ad1be2c89b69c2b068fc378daa952ba7f163c4a11628f55a4df523b3ef60405160405180910390a4611e6260008383600161190e565b5050565b6000808273ffffffffffffffffffffffffffffffffffffffff163b119050919050565b604051806060016040528060608152602001600081526020016000151581525090565b6000604051905090565b600080fd5b600080fd5b60007fffffffff0000000000000000000000000000000000000000000000000000000082169050919050565b611ef581611ec0565b8114611f0057600080fd5b50565b600081359050611f1281611eec565b92915050565b600060208284031215611f2e57611f2d611eb6565b5b6000611f3c84828501611f03565b91505092915050565b60008115159050919050565b611f5a81611f45565b82525050565b6000602082019050611f756000830184611f51565b92915050565b600081519050919050565b600082825260208201905092915050565b60005b83811015611fb5578082015181840152602081019050611f9a565b60008484015250505050565b6000601f19601f8301169050919050565b6000611fdd82611f7b565b611fe78185611f86565b9350611ff7818560208601611f97565b61200081611fc1565b840191505092915050565b600060208201905081810360008301526120258184611fd2565b905092915050565b6000819050919050565b6120408161202d565b811461204b57600080fd5b50565b60008135905061205d81612037565b92915050565b60006020828403121561207957612078611eb6565b5b60006120878482850161204e565b91505092915050565b600073ffffffffffffffffffffffffffffffffffffffff82169050919050565b60006120bb82612090565b9050919050565b6120cb816120b0565b82525050565b60006020820190506120e660008301846120c2565b92915050565b6120f5816120b0565b811461210057600080fd5b50565b600081359050612112816120ec565b92915050565b6000806040838503121561212f5761212e611eb6565b5b600061213d85828601612103565b925050602061214e8582860161204e565b9150509250929050565b6121618161202d565b82525050565b600060208201905061217c6000830184612158565b92915050565b600082825260208201905092915050565b600061219e82611f7b565b6121a88185612182565b93506121b8818560208601611f97565b6121c181611fc1565b840191505092915050565b6121d58161202d565b82525050565b6121e481611f45565b82525050565b600060608301600083015184820360008601526122078282612193565b915050602083015161221c60208601826121cc565b50604083015161222f60408601826121db565b508091505092915050565b6000602082019050818103600083015261225481846121ea565b905092915050565b60008060006060848603121561227557612274611eb6565b5b600061228386828701612103565b935050602061229486828701612103565b92505060406122a58682870161204e565b9150509250925092565b6000602082840312156122c5576122c4611eb6565b5b60006122d384828501612103565b91505092915050565b6122e581611f45565b81146122f057600080fd5b50565b600081359050612302816122dc565b92915050565b6000806040838503121561231f5761231e611eb6565b5b600061232d85828601612103565b925050602061233e858286016122f3565b9150509250929050565b600080fd5b600080fd5b7f4e487b7100000000000000000000000000000000000000000000000000000000600052604160045260246000fd5b61238a82611fc1565b810181811067ffffffffffffffff821117156123a9576123a8612352565b5b80604052505050565b60006123bc611eac565b90506123c88282612381565b919050565b600067ffffffffffffffff8211156123e8576123e7612352565b5b6123f182611fc1565b9050602081019050919050565b82818337600083830152505050565b600061242061241b846123cd565b6123b2565b90508281526020810184848401111561243c5761243b61234d565b5b6124478482856123fe565b509392505050565b600082601f83011261246457612463612348565b5b813561247484826020860161240d565b91505092915050565b6000806000806080858703121561249757612496611eb6565b5b60006124a587828801612103565b94505060206124b687828801612103565b93505060406124c78782880161204e565b925050606085013567ffffffffffffffff8111156124e8576124e7611ebb565b5b6124f48782880161244f565b91505092959194509250565b600067ffffffffffffffff82111561251b5761251a612352565b5b61252482611fc1565b9050602081019050919050565b600061254461253f84612500565b6123b2565b9050828152602081018484840111156125605761255f61234d565b5b61256b8482856123fe565b509392505050565b600082601f83011261258857612587612348565b5b8135612598848260208601612531565b91505092915050565b600080604083850312156125b8576125b7611eb6565b5b600083013567ffffffffffffffff8111156125d6576125d5611ebb565b5b6125e285828601612573565b92505060206125f38582860161204e565b9150509250929050565b6000806040838503121561261457612613611eb6565b5b600061262285828601612103565b925050602061263385828601612103565b9150509250929050565b7f4e487b7100000000000000000000000000000000000000000000000000000000600052602260045260246000fd5b6000600282049050600182168061268457607f821691505b6020821081036126975761269661263d565b5b50919050565b7f4552433732313a20617070726f76616c20746f2063757272656e74206f776e6560008201527f7200000000000000000000000000000000000000000000000000000000000000602082015250565b60006126f9602183611f86565b91506127048261269d565b604082019050919050565b60006020820190508181036000830152612728816126ec565b9050919050565b7f4552433732313a20617070726f76652063616c6c6572206973206e6f7420746f60008201527f6b656e206f776e6572206f7220617070726f76656420666f7220616c6c000000602082015250565b600061278b603d83611f86565b91506127968261272f565b604082019050919050565b600060208201905081810360008301526127ba8161277e565b9050919050565b7f4552433732313a2063616c6c6572206973206e6f7420746f6b656e206f776e6560008201527f72206f7220617070726f76656400000000000000000000000000000000000000602082015250565b600061281d602d83611f86565b9150612828826127c1565b604082019050919050565b6000602082019050818103600083015261284c81612810565b9050919050565b7f6f6e6c79206f776e65722063616e2063616c6c20746869732066756e6374696f60008201527f6e00000000000000000000000000000000000000000000000000000000000000602082015250565b60006128af602183611f86565b91506128ba82612853565b604082019050919050565b600060208201905081810360008301526128de816128a2565b9050919050565b7f4552433732313a20696e76616c696420746f6b656e2049440000000000000000600082015250565b600061291b601883611f86565b9150612926826128e5565b602082019050919050565b6000602082019050818103600083015261294a8161290e565b9050919050565b7f4552433732313a2061646472657373207a65726f206973206e6f74206120766160008201527f6c6964206f776e65720000000000000000000000000000000000000000000000602082015250565b60006129ad602983611f86565b91506129b882612951565b604082019050919050565b600060208201905081810360008301526129dc816129a0565b9050919050565b7f4e487b7100000000000000000000000000000000000000000000000000000000600052601160045260246000fd5b6000612a1d8261202d565b91507fffffffffffffffffffffffffffffffffffffffffffffffffffffffffffffffff8203612a4f57612a4e6129e3565b5b600182019050919050565b600081905092915050565b6000612a7082611f7b565b612a7a8185612a5a565b9350612a8a818560208601611f97565b80840191505092915050565b6000612aa28285612a65565b9150612aae8284612a65565b91508190509392505050565b60008190508160005260206000209050919050565b60006020601f8301049050919050565b600082821b905092915050565b600060088302612b1c7fffffffffffffffffffffffffffffffffffffffffffffffffffffffffffffffff82612adf565b612b268683612adf565b95508019841693508086168417925050509392505050565b6000819050919050565b6000612b63612b5e612b598461202d565b612b3e565b61202d565b9050919050565b6000819050919050565b612b7d83612b48565b612b91612b8982612b6a565b848454612aec565b825550505050565b600090565b612ba6612b99565b612bb1818484612b74565b505050565b5b81811015612bd557612bca600082612b9e565b600181019050612bb7565b5050565b601f821115612c1a57612beb81612aba565b612bf484612acf565b81016020851015612c03578190505b612c17612c0f85612acf565b830182612bb6565b50505b505050565b600082821c905092915050565b6000612c3d60001984600802612c1f565b1980831691505092915050565b6000612c568383612c2c565b9150826002028217905092915050565b612c6f82611f7b565b67ffffffffffffffff811115612c8857612c87612352565b5b612c92825461266c565b612c9d828285612bd9565b600060209050601f831160018114612cd05760008415612cbe578287015190505b612cc88582612c4a565b865550612d30565b601f198416612cde86612aba565b60005b82811015612d0657848901518255600182019150602085019450602081019050612ce1565b86831015612d235784890151612d1f601f891682612c2c565b8355505b6001600288020188555050505b505050505050565b7f4552433732313a207472616e736665722066726f6d20696e636f72726563742060008201527f6f776e6572000000000000000000000000000000000000000000000000000000602082015250565b6000612d94602583611f86565b9150612d9f82612d38565b604082019050919050565b60006020820190508181036000830152612dc381612d87565b9050919050565b7f4552433732313a207472616e7366657220746f20746865207a65726f2061646460008201527f7265737300000000000000000000000000000000000000000000000000000000602082015250565b6000612e26602483611f86565b9150612e3182612dca565b604082019050919050565b60006020820190508181036000830152612e5581612e19565b9050919050565b7f4552433732313a20617070726f766520746f2063616c6c657200000000000000600082015250565b6000612e92601983611f86565b9150612e9d82612e5c565b602082019050919050565b60006020820190508181036000830152612ec181612e85565b9050919050565b7f4552433732313a207472616e7366657220746f206e6f6e20455243373231526560008201527f63656976657220696d706c656d656e7465720000000000000000000000000000602082015250565b6000612f24603283611f86565b9150612f2f82612ec8565b604082019050919050565b60006020820190508181036000830152612f5381612f17565b9050919050565b7f4e487b7100000000000000000000000000000000000000000000000000000000600052601260045260246000fd5b6000612f948261202d565b9150612f9f8361202d565b9250828203905081811115612fb757612fb66129e3565b5b92915050565b6000612fc88261202d565b9150612fd38361202d565b9250828201905080821115612feb57612fea6129e3565b5b92915050565b600081519050919050565b600082825260208201905092915050565b600061301882612ff1565b6130228185612ffc565b9350613032818560208601611f97565b61303b81611fc1565b840191505092915050565b600060808201905061305b60008301876120c2565b61306860208301866120c2565b6130756040830185612158565b8181036060830152613087818461300d565b905095945050505050565b6000815190506130a181611eec565b92915050565b6000602082840312156130bd576130bc611eb6565b5b60006130cb84828501613092565b91505092915050565b7f4552433732313a206d696e7420746f20746865207a65726f2061646472657373600082015250565b600061310a602083611f86565b9150613115826130d4565b602082019050919050565b60006020820190508181036000830152613139816130fd565b9050919050565b7f4552433732313a20746f6b656e20616c7265616479206d696e74656400000000600082015250565b6000613176601c83611f86565b915061318182613140565b602082019050919050565b600060208201905081810360008301526131a581613169565b905091905056fea2646970667358221220f10d02951ca9c15dbf3ab68d5864b826d67e853d844040ba805385d330aa3b3964736f6c63430008110033",
  "linkReferences": {},
  "deployedLinkReferences": {}
}